:100DE00075985053890F438920AB07AA06E4F9F898
:100DF0007F807E70FDFC120BABEFF404F58D858DCA
:080E00008BC2ABD2ACD28E22F2
:03002300020A903E
:100A9000C0E0C0F0C083C082C0D075D000C000C02C
:100AA00001C002C003C004C005C006C00730980AD8
:100AB000C200C29885990A120880309902C299D062
:100AC00007D006D005D004D003D002D001D000D08A
:0A0AD000D0D082D083D0F0D0E03205
:0D0F9400D292D291D294D293D295D29622CD
:090FAE00C292C291C294C29322C6
:090FB700D292D291D294D293227D
:090FC000D292C291D294C2932294
:090FC900C292D291C294D293228B
:090FD200D292D291D294C2932272
:090FDB00D292C291D294D2932269
:090FE400C292D291D294C2932270
:090FED00D292C291C294D2932267
:100ADA00E51124FC601124FE601224FE6013240632
:100AEA007012751104800D75110680087511088041
:100AFA000375110AE51224FC601024FE601024FE1E
:100B0A0060102406700F75120422751206227512DF
:060B1A00082275120A22F8
:100B2000E51124FC601B24FE601224FE600924FEF3
:100B30007012751108800D751106800875110480FA
:100B400003751102E51224FC601824FE601024FED7
:100B5000600824FE700F75120822751206227512A5
:060B6000042275120222BE
:100C6B0020B70C20B609120FC0E4FD7F04802130A1
:100C7B00B71120B60E120FD2E4FD7F0AFE120BEF56
:100C8B00120FAE20B71130B60E120FDBE4FD7F0A48
:080C9B00FE120BEF120FAE2256
:1008FB00120FF6120FC0D3E50D94FAE50C940040DD
:10090B001220B50630B403120FD230B50620B40353
:10091B00120FDBD3E50D94FAE50C9400504520B390
:10092B000630B203120FD230B30620B203120FDB24
:10093B0020B30620B203120FED30B32730B22420C0
:10094B00B50630B403120FD230B50620B403120F24
:10095B00DB20B50620B403120FED30B50630B4031F
:04096B00120FED2258
:100CA300120FF6C3742C950D7401950C5016C3E501
:100CB3000D94BCE50C9402500B120FC0E4FD7F0AA7
:100CC300FE020BEF30B30320B20920B30302000688
:070CD300020E9C120FAE227D
:1000060020B30620B503120FC020B30630B5031285
:0C001600000030B30630B50312000022D9
:100E9C0020B20620B403120FC020B20630B40312E5
:0C0EAC000FD230B20630B4031200002256
:060ED400040800001100FB
:0E0F8600D281758901C28CC2A9D288D2A8225C
:100E0800E4F58CF58AD28C30810CAF8CD3EF94400A
:100E18007480948040F1C28CAF8CEFFEAD8A7C0068
:070E2800E42DFFEC3EFE2269
:100E2F00E4F58CF58AD28C20810CAF8CD3EF9440F3
:100E3F007480948040F1C28CAF8CEFFEAD8A7C0041
:070E4F00E42DFFEC3EFE2242
:100B6600E4F52DF52CF52BF52A308115E52D24011C
:100B7600F52DE4352CF52CE4352BF52BE4352AF54B
:100B86002A208109E4F52DF52CF52BF52AE47F6C56
:100B96007E07FDFCAB2DAA2CA92BA82AD312025640
:040BA60040C77F01C4
:010BAA002228
:10088000E50A12026708D00708C60808DB0C08B39F
:100890001108D51508BC1808B81C08ED3108F2324B
:1008A00008E74208C15208CB5A08E15E08F8770011
:1008B0000008FA120FB7803DC2A38039120FC08022
:1008C00034120FC9802F120FD2802A120FDB80251D
:1008D000120B208003120ADA020DAE120F56020C20
:1008E0006B120F660208FB120F76020CA3120FE4C4
:0B08F0008003120FED020F46B2012240
:030003000205E40F
:1005E400C0E0C0F0C083C082C0D075D000C000C0DD
:0D05F40001C002C003C004C005C006C0075E
:10060100120E2FC3EF9499EE941E50030206B5D338
:10061100EF9433EE942240030206B5120E08C3EFA5
:100621009466EE940E50030206B5D3EF9400EE9457
:100631001240030206B5E4FBEBC39404748094807A
:100641005063E4FAEAC3940874809480504E120E09
:100651002FC3EF9439EE9401405AD3EF94CEEE9428
:10066100025051120E08D3EF9439EE94014010EF6D
:1006710094CEEE94025008E529C313F529801AD3CC
:10068100EF9441EE9405402CEF94D7EE940650245C
:10069100E529C313F5294329800A80A874082BF89A
:1006A100A6290B8093D200120880120B66EF60FA24
:0406B100D2A3D2817D
:1006B500D007D006D005D004D003D002D001D00099
:0B06C500D0D0D082D083D0F0D0E03243
:100EB800120F94D2BB120FA1120F867F807E2512CB
:0C0EC8000DE01209DAD2AF120E5680FBCA
:100BEF00ED146018047039EF1F8E8370011E45835A
:100BFF00602E7964AD0119ED60ED80F8EF1F8E83E3
:100C0F0070011E458360197A277B10EB1B8A837056
:100C1F00011A458360E67C64AD041CED60ED80F83D
:010C2F0022A2
:100E5600E50A24F4601524F0600C24DA601324E417
:100E6600600C244D700ED2A3020FAE020C6B02086A
:050E7600FB120CA32299
:090EDA00011108011208011000C9
:0D0FA10075CDFC75CC18D2ADD2AFD2CA22EE
:03002B00020CDAEA
:100CDA00C0E0C0D0C2CF75CDFC75CC180510E510A8
:100CEA00640A7006F510D296D295E5107004D29572
:100CFA00D296E51114B51002C295E510B51202C2DA
:060D0A0096D0D0D0E032CB
:10035B00AED580A83FD300408D142002A1C8DA127D
:10036B0081EFD9F1DB30A4A6AF00E010080810E054
:10037B0000000F102020100F00001010F8000000DC
:10038B00000020203F202000000070080808887023
:10039B0000003028242221300000300888884830A3
:1003AB00000018202020110E000000C02010F800C3
:1003BB000000070424243F240000F808888808085C
:1003CB00000019212020110E0000E0108888180071
:1003DB0000000F112020110E0000380808C8380843
:1003EB00000000003F0000000000708808088870C3
:1003FB0000001C222121221C0000E010080810E044
:10040B00000000312222110F00000000C0C00000CC
:10041B000000000030300000001010D0FF9014E4FA
:10042B00AFA4A4A4AFE4040000040300FF00894BB5
:10043B002A1A0E1A2A4B88800010109090909090D8
:10044B001010FF101011161000002060203F10102C
:10045B001000030C102040F800404042CC0004F484
:10046B009494FF9494F40400000040201F2048440F
:10047B0042415F4142444840000000FC242424FCDC
:10048B00252624FC242424040040308F80844C55E2
:10049B00252525554C80808000003E22E2223E001F
:1004AB00FE2222222222E20200203F201F111100F5
:1004BB007F4444444444474000040404F484D4A5DA
:1004CB00A6A4D484F40404040000FE0202123A161B
:1004DB0013121A3242827E000000002424242424AA
:1004EB00FC2222222322000000020202020242828C
:1004FB007F02020202020202004044C44444444010
:10050B001010FF101010F00000103C131014B84026
:10051B00300E014080403F00000000829292929288
:10052B009292929292FE000000040404040C340494
:10053B000444847F0404040400404042CC0008C8F7
:10054B0008F8090EF8084888000040201F20514881
:10055B00464148504F404041004042CC00807E22F3
:10056B00223E005465C664540040201F22415F495F
:10057B00495F4042425F42420000FE0222DA06100F
:10058B00D2565A535A56D2100000FF0810080710C3
:10059B00171515FD1515171000003E22E2223E001F
:1005AB00FE92929292FE000000203F201F1111003C
:1005BB00FF40230C142241400000FE225A860810F3
:1005CB004424F42C2724E4040000FF040887413F53
:0905DB004080BF8595A59F8000BA
:0B0EFF00D2867F01120F0AD2877F010C
:070F0A00AE071FEE70FA2292
:100E7B00C286D287E4F532C3E5329419748094802C
:100E8B00500EE53290035B93FF120F11053280E792
:010E9B002234
:100F3500120EFFC2867F01120F0AC2877F78020D4B
:010F4500109B
:080FFF00C286120F01D2862206
:100F11008F39120F35E4FF120D10AF39120D100287
:020F21000FFFC0
:100C3000E535C4F8540FC868FFE534C454F048FEE5
:100C400074742FF58274033EF583E5822537F582AF
:090C5000E5833536F583E493FFDA
:100C59008F38120F357F40120D10AF38120D100268
:020C69000FFF7B
:100EEA008F38E538C4540F4410FF120F11E53854F7
:050EFA000FFF020F11C3
:07100700EF24B0FF020F11FE
:100D4600E4F532C3E5329408748094805025AF32BE
:100D5600121007E4FF120EEAE4F533C3E53394807C
:100D6600748094805009E4FF120C59053380EC0519
:030D76003280D0F8
:010D79002257
:100D7A00E4F513C3E5139408748094805025AF13E7
:100D8A00121007E4FF120EEAE4F514C3E514948086
:100D9A007480948050097FFF120C59051480EC0569
:030DAA001380D0E3
:010DAD002223
:100D1000AD07E4FCECC39408748094805017C2873C
:100D2000ED54807004C2868002D286ED25E0FD126B
:100D30000F010C80DFC2877F01120F0A120EFFC263
:060D4000877F01020F0A8B
:060A36007B0A7A007D201E
:080A3C008F328D338A348B35B3
:100A4400121007AF33120EEAE4F536F537120C3004
:100A54000537E53770020536C39408E5366480949B
:100A64008040EAE53204FF121007AF33120EEA7534
:100A74003600753708120C300537E5377002053635
:0B0A8400C39410E5366480948040EAC3
:010A8F002244
:0606D0007D307A00E4FF1A
:0806D6008F328D338A348B351D
:1006DE00121007AF33120EEAE4F536F537AE34E5F5
:1006EE00357805C333CE33CED8F92424F58274047D
:1006FE003EF583E5822537F582E5833536120C54B7
:10070E000537E53770020536C39410E536648094DC
:10071E008040CAE53204FF121007AF33120EEA759D
:10072E003600753710AE34E5357805C333CE33CE8B
:10073E00D8F92424F58274043EF583E5822537F535
:10074E0082E5833536120C540537E53770020536CF
:0B075E00C39420E5366480948040CAFC
:01076900226D
:100F46007B061206D07B077A007D40E4FF0206D6B8
:100DAE00E51124FC601424FE601424FE601424FE5D
:100DBE0060142408701B7B01800E7B02800A7B036B
:100DCE0080067B0480027B057A007D307F03120A49
:020DDE003C22B5
:100F56007B081206D07B097A007D40E4FF0206D6A4
:100F66007B0A1206D07B0B7A007D40E4FF0206D690
:100F76007B0C1206D07B0D7A007D40E4FF0206D67C
:1007F600AE0CAF0D7C277D101201F37C007D0A1232
:1008060001F3AA04AB057D307F06120A3CAE0CAF9D
:100816000D7C037DE81201F37C007D0A1201F3AA28
:1008260004AB057D387F06120A3CAE0CAF0D7C008A
:100836007D641201F37C007D0A1201F3AA04AB0564
:100846007D407F06120A3CAE0CAF0D7C007D0A127D
:1008560001F37C007D0A1201F3AA04AB057D487FF3
:1008660006120A3CAE0CAF0D7C007D0A1201F3AAFB
:0A08760004AB057D507F06020A3C2A
:1009DA00120E7B120D46E4FBFAFDFF1206D67B01CE
:1009EA007D101206D27B0A7A007D20E4FF120A3CAF
:1009FA007B027A00E4FD7F031206D67B037A007D30
:100A0A00107F031206D67F03120A367B047A00E4AB
:100A1A00FD7F061206D67B057A007D107F06120638
:0C0A2A00D67F06120A36120F46020DAEEF
:060EE300020C0000C10139
:100F23007F01E4F58CF58AD2A1AE071FEE70FAC2F9
:010F3300A11C
:010F3400229A
:10096F0020A012AF0AEF645E60F6EF644260F1EF11
:10097F00642260EC22D28C30A00FAF0AEF645E606D
:10098F00F6EF644260F1C28C22AF8CEFFEAD8A7C31
:10099F0000E42DF50FEC3EF50EC28CFCAD0FE4120A
:1009AF0001397B487AE1798A783F12002E12017261
:1009BF00AD07AC06E41201397B7B7A14792E783EB1
:0B09CF0012002E1201728E0C8F0D2200
:090FF600120F2312096F0207F625
:10002E00EC4D6011E8497017ED33EC3304600DE4CC
:10003E00FCFFFEFD22E933E8330470F80201DE1204
:10004E0001A958046009E4CC248150062850090205
:10005E0001E82840030201E5C0E0EB4A7044B98094
:10006E0006D0E0FB0201D4EF4E701CBD8008EBFF02
:10007E00EAFEE9FD80EBE98DF0A4FEE5F002011742
:10008E00E9CDF9EAFEEBFFEF89F0A4FCE5F0CE89AD
:10009E00F0A42EFFE435F0CD89F0A42DFEE435F06A
:1000AE008067EF4E7005BD80D780C3EF8BF0A4AC98
:1000BE00F0EE8BF0A42CFCE435F0F8EF8AF0A42CD3
:1000CE00E5F038FCE433CB8DF0A42CFCE5F03BF8E6
:1000DE00EE8AF0A42CFCE5F038F8E433CF89F0A4D6
:1000EE002CFCE5F038CF3400CE89F0A42FFFE5F0DC
:1000FE003EFEE433C98DF0A42EFEE5F039CD8AF034
:10010E00A42FFFE5F03EFEE43DFD33D0E0FB5007AB
:10011E000BBB000F0201E8EC2CFCEF33FFEE33FEBD
:06012E00ED33FD0201C0EB
:1001340075F020800E75F010800575F0087D007E46
:10014400007F003392D530D503120248EC334010BF
:10015400EF33FFEE33FEED33FDEC33FCD5F0ED224F
:0E016400E5F0247EA2D513CC92E7CDCEFF228B
:10017200EDD2E7CD33EC3392D524814006E4FFFE85
:10018200FDFC22FCE4CFCECDCC24E0501174FF80E4
:10019200EDC3CC13CCCD13CDCE13CECF13CF047081
:0701A200F030D5DE02024837
:1001A900E9D2E7C933E833F892D5EDD2E7CD33EC9C
:0701B90033FC5002B2D52215
:1001C000EC30E7100FBF000C0EBE00080DBD0004A0
:1001D0000BEB6014A2D5EB13FCED92E7FD2274FF4C
:1001E000FCFDFEFF22E480F8A2D574FF13FC7D80A5
:0301F000E480EFB9
:0300000002076A8A
:0C076A00787FE4F6D8FD7581390207B1F4
:1001F300BC000BBE0029EF8DF084FFADF022E4CCF0
:10020300F875F008EF2FFFEE33FEEC33FCEE9DECB8
:10021300984005FCEE9DFE0FD5F0E9E4CEFD22EDFE
:10022300F8F5F0EE8420D21CFEADF075F008EF2F48
:10023300FFED33FD4007985006D5F0F222C398FD39
:050243000FD5F0EA22D6
:100BAB00C2D5E830E70FB2D5E4C39BFBE49AFAE475
:100BBB0099F9E498F8EC30E717B2D5120BE1120271
:100BCB00C9E4C39BFBE49AFAE499F9E498F880032F
:100BDB001202C930D50DE4C39FFFE49EFEE49DFDD8
:040BEB00E49CFC2268
:0E024800C3E49FFFE49EFEE49DFDE49CFC22C7
:10025600EB9FF5F0EA9E42F0E99D42F0E89C45F0FE
:010266002275
:10026700D083D082F8E4937012740193700DA3A326
:1002770093F8740193F5828883E47374029368603A
:06028700EFA3A3A380DF3A
:10077600020EB8E493A3F8E493A34003F68001F2D3
:1007860008DFF48029E493A3F85407240CC8C33384
:10079600C4540F4420C8834004F456800146F6DF53
:1007A600E4800B0102040810204080900ED4E47E01
:1007B600019360BCA3FF543F30E509541FFEE49348
:1007C600A360010ECF54C025E060A840B8E493A30F
:1007D600FAE493A3F8E493A3C8C582C8CAC583CA3A
:1007E600F0A3C8C582C8CAC583CADFE9DEE780BEF2
:010EE9000008
:10028D0075F008758200EF2FFFEE33FECD33CDCC28
:10029D0033CCC58233C5829BED9AEC99E5829840AB
:1002AD000CF582EE9BFEED9AFDEC99FC0FD5F0D688
:1002BD00E4CEFBE4CDFAE4CCF9A88222B800C1B9B2
:1002CD000059BA002DEC8BF084CFCECDFCE5F0CBF0
:1002DD00F97818EF2FFFEE33FEED33FDEC33FCEB29
:1002ED0033FB10D703994004EB99FB0FD8E5E4F9E4
:1002FD00FA227818EF2FFFEE33FEED33FDEC33FCD1
:10030D00C933C910D7059BE99A4007EC9BFCE99AC4
:10031D00F90FD8E0E4C9FAE4CCFB2275F010EF2F09
:10032D00FFEE33FEED33FDCC33CCC833C810D70709
:10033D009BEC9AE899400AED9BFDEC9AFCE899F844
:0E034D000FD5F0DAE4CDFBE4CCFAE4C8F922D7
:00000001FF
